:03000000020C47A8
:0C0C4700787FE4F6D8FD75813C020C8E2D
:100E280041542B4349504D55583D310D0A0041540A
:100E38002B4349505345525645523D312C38303892
:100E4800300D0A003F065B4F666D7D077F6F777C2C
:0A0E5800395E7971FEFDFBF7EFDF54
:0C0FE000C100023700000122EE012100D8
:100F9500120FED120F1DE5217006120D4A120D9C60
:050FA500120AC380F1F7
:07101600AE071FEE70FA2285
:100EE200D3EF9400EE940040147D6E7C00ED1D70F3
:0D0EF200011CED4C70F7EF1F70E61E80E351
:010EFF0022D0
:040EC0007F017E0030
:100EC400D3EF9400EE940040147D0A7C00ED1D7075
:0D0ED400011CED4C70F7EF1F70E61E80E36F
:010EE10022EE
:100E9500EE7024EF24F9601A24FC601124FE60082A
:100EA5001470147E007F01227E007F02227E007F67
:0B0EB50003227E007F0422E4FEFF22E7
:100D4A00E4FEE522540F24F0F5B0AFB05307F0EFFC
:100D5A0064F0602EAFB05307F0EF64F06024EFC484
:100D6A00540FFF120E95AD07AC06AFB053070F7EB6
:100D7A0000120E95EF25E025E0AE052E24FBAFB05C
:100D8A00FF22AF227801EF08800123D8FDF522AFB8
:010D9A000652
:010D9B002235
:100F5300EF24FF9293120EC0C292120EC0D2927F60
:060F6300017E00020EC435
:100F6900EF24FF9295120EC0C294120EC0D2947F44
:060F7900017E00020EC41F
:100F7F00EF24FF9297120EC0C296120EC0D2967F28
:060F8F00017E00020EC409
:0A100400A2019290A201B392912282
:06101D00EF24FF92A02267
:100D9C00EF120A9D0DBF000DC6080DCA090DCE0A33
:100DAC000DD30B0DD70C0DDB0D0DE00E0DE50F006B
:100DBC00000DEAC290C291D2A0227F0180067F0171
:100DCC00800FE4FF020F7FC20180107F018007E4D7
:0F0DDC00FF020F53E4FF020F69D201121004222D
:100AC300E52164016003020C46F521E534540F125D
:100AD3000A9D0AF7000BDA010BE5020BEF040BFA90
:100AE300050C0A060C19080C230B0C330C0C420ED4
:100AF30000000C46E47F07FEFDFCAB3CAA3BA93A91
:100B0300A839D3120A8C4024209821E53894C8E5EB
:100B13003794004008120F1DE4F537F5380538E522
:100B23003870020537E4FF120F7F80C8E47F07FEA9
:100B3300FDFCAB3CAA3BA93AA839D3120A8C40036B
:100B4300020C46E53454F024E0601624107023D2DE
:100B5300011210047F887E13120EE2C290C29180AC
:100B630011E4FF12101D7F327E00120EE27F01128C
:100B7300101DE4F537F538E47F0FFEFDFCAB3CAA0E
:100B83003BA93AA839C3120A8C5022C3E53894888A
:100B9300E53794134008120F1DE4F537F53805388F
:100BA300E538700205377F01120F7F80CAE47F0F9B
:100BB300FEFDFCAB3CAA3BA93AA839C3120A8C50F0
:100BC30003020C46C2011210047F887E13120EE248
:100BD300C290C291C2AC22E52170687F01120F69F5
:100BE30080F5E521705DFF120F6980F6E5217053F2
:100BF3007F01120F5380F5E52170487F01120F69C1
:100C03007F01120F5380F0E5217038FF120F697FC7
:100C130001120F5380F1E5217029FF120F5380F663
:100C2300E521701F7F01120F69E4FF120F5380F05B
:100C3300E521700FFF120F69E4FF120F5380F1E5F6
:040C43002160FC220E
:100F3900D2A6EF900E4C93F580C2A67580FFD2A77A
:0A0F4900ED900E5C93F580C2A72224
:100FCF00D2A4000000000000000000000000C2A436
:010FDF0022EF
:100DEB00AF8CEFFEAD8A7C00E42DF524EC3EF523B1
:100DFB00FCAD24E41209AB7B9A7A9979D9783F122E
:100E0B000800E4FBFA79C878421209091209E48F49
:0D0E1B003C8E3B8D3A8C39E4F58CF58A2233
:100F1D00120FCF30A5FDD28C20A5FD2000FAC28C7A
:0C0F2D00C200120DEBAF3CE4FD020F39D6
:08100E008F993099FDC299226F
:100FAA00120A65FF600C12100E740129F9E43AFA6C
:030FBA0080EE22A4
:0B0FF900758901E4F58CF58AD2A9226D
:100FBD00759850438920758DFD858D8BE4F587D20D
:020FCD008E2272
:100F0000C2AC120A656015F5993099FDC2997F054A
:0D0F1000121016740129F9E43AFA80E62265
:100E62007BFF7A0E7928120F007F0A7E00120EE2B3
:100E7200C2A37A0E7936120F007D01E4FF120F39F8
:100E82007F0A7E00120EE2D2A37D01E4FF120F3927
:030E9200D2AC22BD
:0C0FED00120FF9120FBD120E62D2AF22DB
:03000B00021023BD
:03102300D20032C6
:03002300020CD3F9
:100CD300C0E0C083C082C0D075D000C000C005C0D2
:100CE30007309852C29874252536F8A699E525B49D
:100CF3002B0A0536E536700A05358006753500750D
:100D03003600C3E536940AE5359400402BE525B457
:100D13002B1CE526B44917E527B45012E528B44443
:100D23000D852E347D01AF34120F397521017535D0
:100D3300007536008002C299D007D005D000D0D00C
:070D4300D082D083D0E03222
:10080000EC4D6011E8497017ED33EC3304600DE4F2
:10081000FCFFFEFD22E933E8330470F8020A5012AF
:100820000A1B58046009E4CC2481500628500902B0
:100830000A5A284003020A57C0E0EB4A7044B980C4
:1008400006D0E0FB020A46EF4E701CBD8008EBFFAD
:10085000EAFEE9FD80EBE98DF0A4FEE5F00208E98F
:10086000E9CDF9EAFEEBFFEF89F0A4FCE5F0CE89D3
:10087000F0A42EFFE435F0CD89F0A42DFEE435F090
:100880008067EF4E7005BD80D780C3EF8BF0A4ACBE
:10089000F0EE8BF0A42CFCE435F0F8EF8AF0A42CF9
:1008A000E5F038FCE433CB8DF0A42CFCE5F03BF80C
:1008B000EE8AF0A42CFCE5F038F8E433CF89F0A4FC
:1008C0002CFCE5F038CF3400CE89F0A42FFFE5F002
:1008D0003EFEE433C98DF0A42EFEE5F039CD8AF05A
:1008E000A42FFFE5F03EFEE43DFD33D0E0FB5007D2
:1008F0000BBB000F020A5AEC2CFCEF33FFEE33FE69
:06090000ED33FD020A3296
:10090600020A5AEC5D046005E859047003020A50B5
:10091600120A1B580460F6EC4860F2EC7004FDFE07
:10092600FF22C860DB2481C85009C39860025006C4
:10093600020A579850CAF582E9294B4A7005AB82DC
:10094600020A4675F0007C1A7880C3EF9BEE9AED9A
:1009560099400DC3EF9BFFEE9AFEED99FDE842F03C
:10096600DC23ACF0D0E0FFD0E0FED0E0FDAB82208F
:10097600E7101BEB60BAEC2CFCEF33FFEE33FEED19
:1009860033FD020A32E803F830E705C0F075F000DF
:10099600EF2FFFEE33FEED33FD40B830E7C280AAFD
:1009A60075F020800E75F010800575F0087D007ECC
:1009B600007F003392D530D503120A7EEC33401007
:1009C600EF33FFEE33FEED33FDEC33FCD5F0ED22D5
:0E09D600E5F0247EA2D513CC92E7CDCEFF2211
:1009E400EDD2E7CD33EC3392D524814006E4FFFE0B
:1009F400FDFC22FCE4CFCECDCC24E0501174FF806A
:100A0400EDC3CC13CCCD13CDCE13CECF13CF047006
:070A1400F030D5DE020A7E7E
:100A1B00E9D2E7C933E833F892D5EDD2E7CD33EC21
:070A2B0033FC5002B2D5229A
:100A3200EC30E7100FBF000C0EBE00080DBD000425
:100A42000BEB6014A2D5EB13FCED92E7FD2274FFD1
:100A5200FCFDFEFF22E480F8A2D574FF13FC7D802A
:030A6200E480EF3E
:100C5300020F95E493A3F8E493A34003F68001F213
:100C630008DFF48029E493A3F85407240CC8C333A2
:100C7300C4540F4420C8834004F456800146F6DF71
:100C8300E4800B0102040810204080900FE0E47E12
:100C9300019360BCA3FF543F30E509541FFEE49366
:100CA300A360010ECF54C025E060A840B8E493A32D
:100CB300FAE493A3F8E493A3C8C582C8CAC583CA58
:100CC300F0A3C8C582C8CAC583CADFE9DEE780BE10
:010FEC000004
:100A6500BB010689828A83E0225002E722BBFE028F
:090A7500E32289828A83E49322C2
:0E0A7E00C3E49FFFE49EFEE49DFDE49CFC2289
:100A8C00EB9FF5F0EA9E42F0E99D42F0E89C45F0C0
:010A9C002237
:100A9D00D083D082F8E4937012740193700DA3A3E8
:100AAD0093F8740193F5828883E4737402936860FC
:060ABD00EFA3A3A380DFFC
:00000001FF
